:100000005555AAAA081500000000000000000000D5
:100010008BE3000000000000000000009290771EBB
:100020000002100005080000890200009F02000085
:10003000B5020000CB020000E10200000000000059
:10004000000000000000000000000000392F000048
:100050003D2F000000000000F70200003F2F0000CD
:10006000412F0000F12C0000B52F0000292D0000C9
:10007000592F00005B2F00005F2F00006D2F000044
:100080007F2F0000812F0000832F0000A12F000090
:10009000A32F0000B72F00000000000000000000A8
:1000A000B92F0000BB2F000000000000000000007E
:1000B00000000000BD2F0000BF2F00003D2D0000FC
:1000C000C12F0000CF2F000009030000E72F000020
:1000D000E92F000000000000000000000000000008
:1000E0000815000000F002F800F05AF80AA090E8A5
:1000F000000C82448344AAF10107DA4501D100F0E3
:100100004FF8AFF2090EBAE80F0013F0010F18BF55
:10011000FB1A43F001031847805C0100A05C01005A
:100120000A444FF0000C10F8013B13F0070408BF1D
:1001300010F8014B1D1108BF10F8015B641E05D0BB
:1001400010F8016B641E01F8016BF9D113F0080F70
:100150001EBF10F8014BAD1C0C1B09D16D1E58BF02
:1001600001F801CBFAD505E014F8016B01F8016B39
:100170006D1EF9D59142D6D37047000000230024AC
:1001800000250026103A28BF78C1FBD8520728BFA7
:1001900030C148BF0B6070471FB51FBD10B510BD03
:1001A000DFF80CD0FFF7F8FF03F09CF815F07EFBAA
:1001B0000002100003B4FFF7F1FF03BC15F07EFB53
:1001C0000A484FF0FF0101704FF0000080F31188E2
:1001D0004FF0000080F3098805484FF002010170DC
:1001E00062B604484FF080510160704722ED00E094
:1001F0000002100004ED00E002484FF08051016061
:100200007047000004ED00E04FF0200080F31188FB
:10021000EFF3098098B112480068124909688842D2
:1002200017D0EFF309800E49096820E9F00F8860C4
:1002300000B50B48006800F0F2F85DF804EB0848E0
:1002400008490A68026000688168B1E8F00F81F32C
:1002500009884EF0040E4FF0000080F311887047BB
:100260000402100008021000EFF311804FF020018B
:1002700081F31188704700004FF0000080F311886F
:100280007047000062B6704772B6704740BA704758
:10029000C0BA7047401E0028FCDC704700BE7047A3
:1002A00040BA7047C0BA70471EF0040F0CBFEFF39E
:1002B0000880EFF309804FF0010102F0A9BD1EF0A4
:1002C000040F0CBFEFF30880EFF309804FF0020139
:1002D00002F09EBD1EF0040F0CBFEFF30880EFF399
:1002E00009804FF0030102F093BD1EF0040F0CBF14
:1002F000EFF30880EFF309804FF0040102F088BDAE
:100300001EF0040F0CBFEFF30880EFF309804FF0ED
:10031000050102F07DBD4FF0000000B503F08CFD3B
:100320005DF804EBFFF770BF1EF0040F0CBFEFF396
:100330000880EFF309804FF0000102F069BD000072
:10034000194910B5012008701849002008601849A3
:100350000860184908601849086000F0B9F900F011
:100360004BF900F063F8002010BD10B5114800F003
:100370002AF90F4908600D490968884207D00A48E0
:100380000078022803D1BDE81040FFF735BF10BD4B
:1003900010B5FFF7EAFF044902200870FFF710FFCD
:1003A0004FF0FF3010BD00000002100004021000EA
:1003B000080210000C0210001002100070B50D466B
:1003C0000446C1698068CC2215F073F9E169A06820
:1003D000084440384FF08071C163216A8163002175
:1003E00041630163C1628162C0E908514FF00B3182
:1003F000C1614FF00A3181614FF0093141614FF025
:10040000083101614FF00731C1604FF00631816062
:100410004FF0053141604FF00431016070BD8269D9
:100420008168914201D803F026B8704710B54FF4A7
:10043000B4714F4815F067F9002010BD70B505463E
:1004400000EBC5014A4800EB8104FFF70DFF0646AB
:10045000207828B13046FFF70FFF6FF0010070BD24
:100460000320207000206560206204F11C0000F071
:1004700083F83046FFF700FF002070BD2DE9F04102
:100480000F463B49002500EBC00001EB80042E46DF
:10049000FFF7EAFE8046206A3843206204F11C0020
:1004A000074600F090F80CE0216A026C114203D07C
:1004B00000F066F9012600E06D1C2946384600F080
:1004C00078F80028F0D1012E01D1FFF74EFF404609
:1004D000FFF7D2FE0020BDE8F08170B50D4624493B
:1004E00000EBC00001EB8004FFF7BEFE216AA943C8
:1004F0002162FFF7C1FE002070BD70B50C461C499B
:1005000000EBC00001EB800500202060FFF7ACFE8F
:10051000296A2160FFF7B0FE002070BD2DE9F0418F
:100520000D46134900EBC0001E46904601EB8004C7
:10053000FFF79AFE07460F4800680564216A2942C2
:1005400003D104F11C0100F02DF93846FFF794FEA9
:10055000FFF78AFE216A29403160B8F1010F02D10C
:10056000216AA9432162FFF787FE0020B3E700005C
:100570005005100004021000002101600846704779
:1005800030B50A6812B10B46C46B09E0002208605E
:10059000C0E903210BE000BF02F10C03D26812B1E5
:1005A000D56BA542F8DC1A68C0E903211860002069
:1005B00030BD0068002201E0C068521C8A4201D0B0
:1005C0000028F9D170470068704702690AB11168C4
:1005D00031B96FF00400704701F10C02C96839B1FC
:1005E0008142F9D1C9681160002101610846704754
:1005F0006FF003007047000010B54FF4C871324827
:1006000015F081F8002010BD2DE9F041884605461F
:100610002D4900EB8500174601EBC004FFF724FECF
:100620000646207830B13046FFF726FE6FF0010015
:10063000BDE8F08102202070E7611422414604F1F8
:100640000800656014F0F0FF0020206204F124002F
:10065000FFF792FF3046FFF70FFE0020E8E770B586
:10066000194900EB800001EBC004FFF7FDFD0546D2
:10067000D4E90701814205DB144804F12401006834
:1006800000F090F8206A401C20622846FFF7F4FD35
:10069000002070BD70B50C4900EB800001EBC00478
:1006A000FFF7E2FD0546206A08B1401E206204F112
:1006B0002400FFF788FF10B1606A00F011F82846A7
:1006C000FFF7DAFD002070BDB8061000040210002C
:1006D00010B54FF42A71404815F015F8002010BDF0
:1006E00010B5044690F8380002280BD02046FFF7DA
:1006F0006CFF022084F8380038492046FFF740FF9D
:10070000FFF733FE002010BD2DE9F05F8B46064653
:10071000314900EB06109046DDE90AA911F82020C6
:100720001D461AB16FF00100BDE8F09F01EB800497
:10073000FFF79AFD074601202070C4E90165C4E96E
:100740000585C4E907A91422594604F1240014F0D0
:100750006BFF002084F8370084F838006169E0609E
:100760002061C4E90F1020460C99FFF727FEA06016
:100770002046FFF7B5FF3846FFF77EFD0020D3E7A0
:1007800010B5044690F83800022809D02046FFF73B
:100790001CFF022084F8380010492046FFF7F0FEC5
:1007A000002010BD70B5044690F838000D460228B0
:1007B0000BD12046FFF709FF032084F838002946B3
:1007C0002046FFF7DDFEFFF7D0FD002070BD044896
:1007D0000068406870470000480810000C021000D4
:1007E00004021000F0B58446002004460C4F14E0CB
:1007F0005CF824600323DD0046FA05F280EA02601B
:100800000825002802DA87EA400000E040006D1E5B
:10081000002DF6DC5B1EEED5641C8C42E8DBF0BDDF
:100820001B0000801248804712480047FEE7FEE7A1
:10083000FEE7FEE7FEE7FEE7FEE7FEE7FEE7FEE790
:10084000FEE7FEE7FEE7FEE7FEE7FEE7FEE7FEE780
:10085000FEE7FEE7FEE7FEE7FEE7FEE7FEE7FEE770
:10086000FEE7FEE7FEE7FEE7FEE7FEE7FEE7000045
:10087000AD080000C50000001E4800684FF00051A0
:10088000002891F8210000F01C000DD0042805D0AC
:10089000082805D00C2805D096200CE011200AE08D
:1008A000252008E04B2006E0042809D0082809D0BC
:1008B0000C2809D07020401E01F82C0F08707047DA
:1008C0000C20F8E71B20F6E73720F4E770470A49C9
:1008D00093200870D0E708490B200870CCE7054842
:1008E000006818B904480078932801D000207047A8
:1008F00001207047340400222100002070B504203C
:1009000000F0B5F9052000F0B2F9062000F0AFF9CB
:10091000072000F0ACF9082000F0A9F9182000F039
:10092000A6F9192000F0A3F91A2000F0A0F9E14976
:1009300000200860DF4A40321060DE4B183B186030
:10094000DC4B08331860DC4CE071DA4B143B186068
:10095000D84B0C3318602072D64B103B1860D54B27
:10096000103318606072D34B0C3B1860D14B1433BA
:100970001860A072CF4B083B1860CE4B183318603C
:10098000E072CC4B28331860A0731E1D3060E073FA
:10099000331D1860207401250D6015602570062137
:1009A000042000F07CF90621052000F078F90621EA
:1009B000084600F074F90621072000F070F90621BE
:1009C000082000F06CF90621182000F068F90621D3
:1009D000192000F064F904211A2000F060F90420C5
:1009E00000F051F9052000F04EF9062000F04BF917
:1009F000072000F048F9082000F045F9182000F021
:100A000042F9192000F03FF91A2000F03CF90420C7
:100A100000F021F9052000F01EF9062000F01BF976
:100A2000072000F018F9082000F015F9182000F050
:100A300012F91A2000F00FF9FF20E070356070BD48
:100A400000EB80009B494000002218390A609A4A56
:100A5000521F107001200860704796490020183915
:100A60000860704700EB8000924940000022143972
:100A70000A60914A121F10700120086070478D496A
:100A8000002014390860704700EB8000894940005D
:100A9000002210390A60884AD21E107001200860B6
:100AA00070478449002010390860704700EB8000CF
:100AB0008049400000220C390A607F4A921E107063
:100AC0000120086070477B4900200C39086070479E
:100AD00000EB800077494000002208390A60764A1E
:100AE000521E1070012008607047724900200839BA
:100AF000086070477149097848430A21B0FBF1F159
:100B00006F48491E80F86010582181761121C17606
:100B1000042280F860205C228276C17670476848A3
:100B2000002180F860105C2181761121C176704728
:100B3000604A10B5283214680123D10664B100243C
:100B4000146081F8350091F8420000BF91F84240EE
:100B50008442FBD0136010BD81F83500FAE700EB4A
:100B6000C00101EB00106FF0030101EB800010B534
:100B70005449554C0978B0FBF1F0401E80B2FF2873
:100B80000CD9010A2170494200EB01206070FF205E
:100B9000FFF7CEFF2078401E207010BD002121708D
:100BA0006170BDE81040C0B2C2E742482830016819
:100BB000002909D000210160C10691F8420000BF60
:100BC00091F842208242FBD0704710B53E4C21780C
:100BD000607851EA000207D051B1FF20FFF7A8FF6B
:100BE0002078401E207010BDBDE810400AF0C4BA45
:100BF000FFF79EFF0020607010BD2E4A10B5303206
:100C000014680123590794B10024146081F8370057
:100C100091F8420091F842408442FBD0136091F871
:100C2000420000BF91F842208242FBD010BD81F803
:100C30003700F3E71F483030016800290AD000214F
:100C400001604FF0005191F8420000BF91F842203E
:100C50008242FBD0704700F01F0201219140400901
:100C60004FF0E02202EB8000C0F80011704700F066
:100C70001F020121914040094FF0E02202EB800069
:100C8000C0F88011704700F01F0201219140400917
:100C90004FF0E02202EB8000C0F880127047490755
:100CA000090E002803DA00F00F00084A00E0084AA5
:100CB000815470471C05002233000020C20210003E
:100CC00000100020C10210001402100014ED00E01A
:100CD00000E400E049480121016000210160704703
:100CE00047480121016000210160704710B50020D4
:100CF00000F06BF8FFF7F4FFFFF7ECFF414900202D
:100D000008604149A0200870002000F06AF8BDE8A2
:100D10001040002000F04DB83A4801211C38016015
:100D200000210160704710B5002000F04EF83349F3
:100D300001200860002000F054F8BDE810400020B9
:100D400000F037B82D4901201C39086070472F4842
:100D500000782E49491C0978401A00F03F0070477E
:100D60002B4902780A7042784A7082788A70C27879
:100D7000CA7002790A7142794A7182798A71C0799E
:100D8000C871704723480068417882784FF000505E
:100D9000437A0374204B1B78437443891B0A837482
:100DA0004389C37401754275C1798175017AC17532
:100DB000704700F01F020121914040094FF0E022EE
:100DC00002EB8000C0F80011704700F01F02012103
:100DD000914040094FF0E02202EB8000C0F8801102
:100DE000704700F01F020121914040094FF0E022BE
:100DF00002EB8000C0F88012704700005C84002283
:100E0000A00000227C04002200E400E02004002076
:100E1000000200203C021000B502100010B50920AD
:100E200000F054F80A2000F051F8092000F05AF8B8
:100E30000A2000F057F80521092000F05FF805218D
:100E40000A2000F05BF833487F2141707C228270D9
:100E50000171002100F848192F490A684FF001017B
:100E600092F8C830DC070AD09C0708D590F84A40B1
:100E7000C3F3820301FA03F39C4380F84A4092F8DB
:100E80001131DC0721D0C3F34203012B03D0234BE4
:100E90004FF480641C604830837802F21112147899
:100EA000C4F3420401FA04F4A34383700379147871
:100EB000C4F3420401FA04F4234303710378127863
:100EC000C2F3420291400B43037010BD00F01F02B9
:100ED0000121914040094FF0E02202EB8000C0F870
:100EE0008011704700F01F020121914040094FF02E
:100EF000E02202EB8000C0F8801270474907090E1B
:100F0000002803DA00F00F00054A00E0054A81548A
:100F100070470000480000203C02100000E100E0A3
:100F200014ED00E000E400E0704710B5044602460E
:100F30002A21002000F06EF9221D2B21002000F054
:100F400069F904F108022C21002000F063F904F192
:100F50000C020F21032000F05DF92068000E032829
:100F600025D304F114022D21002000F053F904F1DF
:100F700010022E21002000F04DF904F11C022F2157
:100F8000002000F047F904F118023021002000F0A1
:100F900041F904F124023121002000F03BF904F171
:100FA00020023221BDE81040002000F033B910BD0E
:100FB00008B507216A46084600F02CF9009808BDDC
:100FC00010B5BE4C072060700020207044F2C000B5
:100FD000608000BF00BF00BF4CF2C000608000BF57
:100FE00000BF00BF4CF2E00060800920FFF752F91B
:100FF00044F2E000608000BF00BF00BF4FF48040BB
:10100000608010BDF0B500252E464FF00054E0275B
:1010100017E000BF883401F03F01607021706780E5
:1010200000BF00BF00BFD4F808C043F825C06680E9
:10103000883C00BF6D1C521E491C3F2901D9401C31
:10104000C0B2002AE6DCF0BD2DE9F0479B4D00263A
:10105000AD1C04462E80DFF868920121C9F880108B
:101060004FF4C058A5F8008000BF00BF00BF00BF0C
:1010700000BF4FF480572F803520FFF70BF92E80EB
:10108000FFF79EFF00F0DCF85C2000F0EAF8234652
:10109000012208210020FFF7B5FF231D01220921AD
:1010A0000020FFF7AFFF04F1080301220A2100200E
:1010B000FFF7A8FF04F10C0301220B210020FFF72A
:1010C000A1FF04F1100301220C210020FFF79AFF79
:1010D00004F1140301220D210020FFF793FF00F01B
:1010E000AFF8FFF76DFF2F8000BF00BF00BF00BF4C
:1010F00000BF00BF00BF00BF00BF00BFA5F8008059
:1011000000BF00BF00BF00BF00BF4FF44060288099
:10111000C9F88060BDE8F087F0B54FF0000C059C81
:101120000CB14FF0800CC5B200264FF00057644C54
:1011300028E000BF87F889504FEAC05EBEF1000F7B
:1011400001F03F0E4EEA0C0E01DA4EF0400E87F829
:1011500088E053F826E0C7F88CE04FF0010EC4F8A1
:10116000B0E04FF0000EC4F8B0E0491CC9B240290D
:1011700002D36D1CEDB20021D4F8C0E0BEF1000F27
:10118000FAD1761C9642D5DBF0BD4FF0005282F8C2
:101190008900002309B1802002E0C00503D540206A
:1011A00082F8880001E082F8883045480121C0F8C3
:1011B000AC10C0F8AC3000BFD0F8C0100029FBD193
:1011C0007047F8B50C4605464FF4F47600213046DA
:1011D000FFF7DBFF0020014600902B4622463046F9
:1011E000FFF79AFFF8BDF8B50C4605464FF4F876C0
:1011F00000213046FFF7C9FF00214FF4FC70FFF7D4
:10120000C4FF0020014600902B4622463046FFF7DF
:1012100083FFF8BD294B587041F0800003F888091E
:1012200027480021B4300160012140F8B41900BF03
:10123000D0F8C0100029FBD1D3F89000106070479F
:1012400010B51E4C4FF48040A41C20800420FFF7F2
:1012500021F80020208000BF00BF00BF00BF00BFFA
:1012600010BD70B5154C2126A41C268000BF00BF00
:1012700000BF00BF00BF40F02105258000BF00BFB8
:1012800000BF00BF00BF44F22101084320800420BA
:10129000FFF700F8258000BF00BF00BF00BF00BF00
:1012A000268000BF00BF00BF00BF00BF002020801D
:1012B00000BF00BF00BF00BF00BF70BD880000209E
:1012C00000100022F8B5FF4D002634466E70EE6027
:1012D0002E616E610120AE6101F002F80C2000F079
:1012E000FFFF032000F0FCFF172000F0F9FF0120B2
:1012F00001F002F80C2000F0FFFF032000F0FCFFDB
:10130000172000F0F9FF01F05FF86A460221EE486D
:1013100001F0E7FCED499DF80000ED4A08709DF8EA
:1013200001101170442800D0042601F064FA01F085
:1013300058FA0521012000F0EBFF05210C2000F0F8
:10134000E7FF0621032000F0E3FF0621172000F04D
:10135000DFFF012000F0B8FF032000F0B5FF1720E9
:1013600000F0B2FFEC70AC702C713046F8BD70B577
:10137000D44B1889C0F38001C0F34016C0F3002499
:101380007140C0F3C0226140C0F3803551406940D4
:10139000400840EAC130188170BDD065704738B54B
:1013A0000D46009014460421684602F0C7F8C9496A
:1013B0008978C90602D5072D00D1401C00996165C6
:1013C00084F8530038BD2DE9F04FC34D0646C14C9B
:1013D00028688BB090F83404C00718D0608840F0BB
:1013E00080006080FFF7C3FF296800F00700084411
:1013F00090F8350484F84100FFF7B9FF2968C0F37D
:101400000210084490F83504800084F840004FF042
:10141000000984F84B902868AA4F062E90F84507DB
:101420006075387802D0062825D010E006280ED046
:1014300001208DF80000684602F00DFA684601F0C0
:10144000ABF8684601F05FF8684601F08AFBA348F4
:10145000BA463E70C0F30E074FF00208042E0DD0BE
:10146000032E25D04FF0040B022E45D0052E5FD061
:10147000062E7CD0C5E08DF80090DCE7954A314619
:10148000E06AFFF78CFF206BE065A4F84C70A07851
:1014900080060028286890F8580703DA20F0060034
:1014A00040F0040084F8510084F85280E9203CE0C8
:1014B000884A3146E06AFFF772FF206BE065854895
:1014C00004212C3002F03AF8844901EB8000C0F38B
:1014D0000E00A4F84C00A07880060028286890F838
:1014E000580703DA20F0060040F0040084F85100A9
:1014F00084F85280ED2018E0764A3146E06AFFF722
:101500004EFF206BE065A4F84C70A07880060028A0
:10151000286890F8580703DA20F0060040F004002D
:1015200084F8510084F852B0E52084F84E0068E059
:10153000A078800665D52868323400F2C930654A43
:101540000178A174C1782175417821768078A071E5
:10155000607E314640F00100607654F8060CFFF7DB
:101560001EFF5F48C0F30E006083286800E00CE0B7
:1015700090F8580720F0060040F00200E07784F869
:101580002080E9202077323C3BE0524A3146E06A35
:10159000FFF705FF206BE0655048F830C0F30E0000
:1015A000A4F84C00A07880060028286890F8510222
:1015B00003DA20F0060040F0040084F851003434CF
:1015C00084F81EB0286800F25220018821804188EA
:1015D0006180817A2171C27A6271C388E380038954
:1015E0002381A172E272017B217490F84115A174EC
:1015F000407BA075E520A076E07D40F00400E0751A
:10160000343C286890F80A17C907A1784FEA81711D
:1016100020D0002920DB94F84B10490721D490F802
:101620000907C0070DD00021012002F05AFD94F8EF
:101630004F0020F00300801C84F84F00A4F8429073
:1016400013E00121084602F04CFD94F84F0040F0F1
:10165000030008E0002904DA90F8660720F0030090
:1016600001E090F8660784F84F00607D20F00400E8
:1016700060758AF802600BB01648BDE8F04F01F0C3
:101680009CB915481349006890F8002281F8212080
:1016900090F80122CA754A88D20504D490F8022233
:1016A00002F00F028A7500F20320027802F03F0276
:1016B0000A76B0F801208A83C2788A77007900F030
:1016C000F0000FE01802100004100020B402100017
:1016D000B5021000F00A10003C021000009E01202C
:1016E000F09F0120F74A127840EA1210C87770473D
:1016F0002DE9F047F44C0546002084F84B00F34FE9
:10170000E12084F84E003868DFF8B893F04E90F886
:101710004517617590F80A175FEAC1782146B1F85C
:1017200002C0CB7D0CF0FF024CF0010104D05FEA57
:101730008C7C01D4012D08D0DFF89883082D0BD0C4
:10174000072D3CD0092D58D032E07371B2710A22B6
:10175000E2756180DF4911E07371B2716180417D92
:10176000027D4B1C94F860C003FB02F1BCF1010F39
:1017700002D902FB0CF1594308EB4101C1F30E0100
:10178000A4F84C1090F8531799F8002001F0F001DC
:1017900002F00F021143E17790F8550784F8210019
:1017A000C94A29465FF00100FFF7F9FD2069E065AD
:1017B00060884107617D2ED521F0040131E0427D32
:1017C000338B017D521C5A43514308EB4101C1F355
:1017D0000E01A4F84C1090F8531799F8002001F06E
:1017E000F00102F00F021143E17790F8550784F8F9
:1017F0002100B54A2946E068D6E7B748C0F30E0095
:10180000A4F84C00FFF73DFFAF4A2946606AFFF796
:10181000C6FDA06ACBE73A6892F8452702F00402B9
:1018200011436175C10705D094F84E1041F00201D3
:1018300084F84E1039684FEA807091F80A27D20771
:1018400018D0002818DB072D04D0092D02D0012D57
:1018500005D01AE014F84F0F20F0030008E0002133
:10186000012002F03EFC14F84F0F20F00300801C12
:1018700020700AE0002804DA91F8660720F00300DF
:1018800001E091F8660784F84F00B570BDE8F047B5
:101890008D4801F023B8072810D009280ED0012860
:1018A0000CD008280AD0042807D0032805D0052822
:1018B00003D0022801D0062801D184E518E770473B
:1018C0002DE9F843824D8146012901D10020E871BC
:1018D000EC79824E641C7D4FDFF8EC810FE03868B4
:1018E00090F80A07C00702D098F80200800756F85F
:1018F0002420694648469047012805D0641C0A2CDC
:10190000EDD90020BDE8F883EC719DF80000F9E7FF
:101910002DE9F0410546008800283AD06422294686
:10192000694802F0BEF9FEF752FF694C0027674E86
:10193000C4E90670306890F80A07C0070AD0A87892
:10194000800707D46049088810F0760F02D040F075
:1019500080000880A07800281BD101215A48FFF799
:10196000AFFF050015D05E4901200870306890F87F
:10197000101149070FD590F8430780070BD401F0E9
:101980008CF90220E07001F08CF9192001F0A1F926
:10199000A570BDE8F08167702846BDE8F0417AE7A0
:1019A00000207047C268120006D00088C00503D529
:1019B000082008700120704700207047C26812009C
:1019C00006D00078C00703D00720087001207047B8
:1019D00000207047426A120006D00078000703D545
:1019E000092008700120704700207047C26812006B
:1019F00005D00078000602D501200870704700204D
:101A00007047C26A120008D0026B32B100788006BB
:101A100003D5022008700120704700207047C26A79
:101A2000120006D00078C00603D5052008700120FA
:101A3000704700207047C26A120006D00078800705
:101A400003D5042008700120704700207047026B06
:101A500032B10078400703D5032008700120704799
:101A600000207047C26A120008D0026B32B10088B1
:101A7000400503D5062008700120704700207047FC
:101A800000200870012070472DE9F0410E48042124
:101A90002C3001F053FD04460B480421303001F096
:101AA0004DFD0B4F0546DFF82080B8780D4E042819
:101AB00001D002281ED198F80200800614D5A20099
:101AC000084914E0F6FF0100F00A10003C02100083
:101AD000180210000080012070A00120A858010009
:101AE000BF021000009E0120620006EB4401F8488E
:101AF00002F0D7F8B878032801D0022811D198F85D
:101B00000200800603D5AA0006EB840104E005EB81
:101B100044006A0006EB4001BDE8F041ED4802F0E8
:101B2000C0B836E730B587B001208DF80000EA482C
:101B3000EA4DEB4C006890F80A07C0070AD0A87875
:101B4000800707D4A078012804D102208DF8000076
:101B500009F01BFB00F005FCE248019000F5F05095
:101B60000290217900F51C7000EB410003900020E9
:101B70002071DD480490A9686846884707B030BDE9
:101B8000F0B5D54B47F6FF7201291B6803D01B7DCA
:101B9000D64C00211EE0D54C5B7D3C3CF9E70D188E
:101BA000EDB2D34FEE18F6B237F815E007F1800C1E
:101BB00037F816703CF815503CF81660AEEB05058A
:101BC000BE1B35442DB224F81150954200DA2A4646
:101BD000491CC9B29942E2D3002006E034F8101043
:101BE000891A24F81010401CC0B29842F6D3F0BDF8
:101BF0002DE9FC5F01200026B74CCDE9006020688C
:101C0000BC4D90F80017C9072FD0B44991F848701F
:101C100007B90127B149DFF8C88291F8471091FB55
:101C2000F7F10FFA81FB98F80210042902D003297A
:101C300003D00CE0407D460024E0007D04214600F6
:101C4000A6482C3001F07AFCAA4901EB800598F8EF
:101C5000020002280AD005280FD0042812D0032839
:101C600010D002280ED005280CD0DBE12068A14D51
:101C7000417D007D0844460004E020689A4D3A26E4
:101C800090F801B7D8F80C108A465945EDDCBAF146
:101C9000000F05D194484FF4F871943013F033FDE0
:101CA000C64698F80200DFF84882002108F1800853
:101CB000A8F5AA692BE000BF59F8213035F911C009
:101CC0000428634449F8213001D003281ED1BAF119
:101CD000000F07D1864A002322F8113047F6FF7221
:101CE00028F81120DFF808C235F911203CF911302D
:101CF0009A4200DC1A462CF8112035F9112038F9E7
:101D000011309A4200DB1A4628F81120491CB142D2
:101D1000D2DB0AF10101CEF80C1059457ADB002321
:101D2000DFF8D4A1F046CEF80C30042806D0032802
:101D300056D002286FD005286ED073E10121002013
:101D4000FFF71EFFDFF894B19BF8490060B12068EF
:101D5000407D41006448943002F064F9C8F81000F6
:101D60007821664813F0ADFC0020D8F8103034E03C
:101D700039F820207A43A2EB030212B225F8102092
:101D80009046226892F849C45FEA8C7C20D59BF883
:101D900049C0BCF1000F12D0B2F956C4E04502DDD3
:101DA000A8EB0C0207E0B2F95A24904502DAA8EB3E
:101DB000020200E00022DFF844C12CF810204F4A54
:101DC00035F810C032F81020ACEB020225F81020D4
:101DD00059F820204AF82020401CB042C8DB21E1FD
:101DE00000210846FFF7CCFEDFF8F0B09BF8490071
:101DF00060B12068007D41003B48943002F012F948
:101E0000C8F8140080213E4813F05BFC0020D8F88D
:101E1000143038E002E139E0EFE000BF39F820206B
:101E20007A43A2EB030212B225F8102090462268F2
:101E300092F849C45FEA8C7C20D59BF849C0BCF17C
:101E4000000F12D0B2F958C4E04502DDA8EB0C0235
:101E500007E0B2F95C24904502DAA8EB020200E048
:101E60000022DFF89CC02CF81020254A35F810C05D
:101E700032F81020ACEB020225F8102059F820208F
:101E80004AF82020401CB042C8DBCBE0DFF84CB061
:101E90009BF84900D0B12068407D41001248943041
:101EA00002F0C0F8C8F810002068017D427D4900AA
:101EB00009EBC20002F0B6F8C8F8140078210F4808
:101EC00013F0FFFB80210E4813F0FBFB00204CE0D9
:101ED000C8A7012040A801203C021000F00A100011
:101EE0001802100000800120F09F012090A6012020
:101EF00054A50120009E012074A20120C0A8012049
:101F000038A9012039F82010B8F810307943A1EB36
:101F1000030109B225F81010236893F849C45FEA59
:101F20008C7C1DD59BF849C0BCF1000F10D0B3F9D3
:101F300056C4614502DDA1EB0C0106E0B3F95A3449
:101F4000994201DAC91A00E00021F74B23F810107A
:101F5000F54935F8103031F81010591A25F81010DD
:101F600059F820204AF82020401C2168497DB0EB18
:101F7000410FC7DB2068407D4FEA40003AE000BFD8
:101F800039F82030B8F814107B43A3EB010109B2F3
:101F900025F81010236893F849C45FEA8C7C21D59A
:101FA0009BF849C0BCF1000F12D0B3F958C4614589
:101FB00002DDA1EB0C0106E0B3F95C34994201DAD1
:101FC000C91A00E00021D94BDDF800C023F81C102D
:101FD000D64B009935F810C033F81110ACEB010165
:101FE00025F810100099491C009159F820204AF852
:101FF0002020401CB042C3DB14E000204946CC4AFC
:1020000009E000BF31F8203025F8103051F82030B9
:1020100042F82030401CB042F4DB03E0FFF73BFC09
:10202000002001900198BDE8FC9FC24910B58A7854
:102030000120072A0BD18B69BF4C5B1C8B6194F884
:102040006040A34204DA1046FFF725FC002010BDD3
:1020500000228A6110BD70B5B84909684B7D097DC1
:102060005B1C4B43B4490C460A7894F86040D20795
:1020700020D0012C1ED9498849051BD50020B04A23
:1020800015E001210AE000BF01FB030632F8105001
:1020900032F81660491C354422F810508C42F3DCAB
:1020A00032F9101091FBF4F122F81010401C984204
:1020B000E7D370BD047670BD2DE9F04188B0FFF71D
:1020C000E3FCFFF7B2FF002826D09B4DA87840061E
:1020D00003D4FFF78DFD00281ED0984E954C306834
:1020E00090F80A07C0070BD0A878800708D4A0781A
:1020F000012805D16079E875A079688009F045F874
:10210000A078082801D1A079688000218A48FFF7CB
:10211000D7FB18B1FFF7BFFB08B03AE489480027A6
:10212000A7700770306890F80A07C00706D0A87833
:10213000800703D40021084601F0D3FF8249A42080
:102140000873306890F81001400702D5E77000F07E
:1021500092FD6078012828D08DF8007001208DF85C
:1021600018006846FFF777FF2888DFF8E081400510
:1021700007D53068407D420008EB4001404601F041
:1021800090FD6F48019000F5F0500290217900F524
:102190001C7000EB410003906C482771F830CDE9CA
:1021A0000408A96868468847B6E703208DF8000050
:1021B000D4E770B56148634D4FF00004016891F8B1
:1021C000100142075B480AD591F84317890706D4E6
:1021D000C178012908D002290FD0032903D1C47086
:1021E000FFF7A0FC2C7070BD0221C17000F059FDFA
:1021F000BDE87040322000F06CBD0321C1708078D2
:10220000BDE87040FFF747BBF0B500224D1E12E05D
:10221000531C1F460BE000BF30F8126030F813402B
:10222000A64203D920F8136020F812405B1C9BB231
:102230008B42F1D3BAB2AA42EADBF0BD2DE9FF41ED
:1022400000252E462946012001F04BFF00246F4651
:1022500000F0A8FD27F81400641CA4B2082CF7D3E2
:1022600008216846FFF7D0FF5FF0020037F8101032
:1022700019B131446D1C8EB2ADB2401C80B206283B
:10228000F4D3B6FBF5F004B04BE438B50C46054684
:1022900001226946104600F06AFD9DF80000000921
:1022A00028709DF8000000F00300207038BD08B5CC
:1022B00001F0030141EA00118DF800100122694686
:1022C000104600F09BF908BD00F01F02012191406B
:1022D00040094FF0E02202EB8000C0F80011704787
:1022E00000F01F020121914040094FF0E02202EB73
:1022F0008000C0F88011704700F01F02012191405A
:1023000040094FF0E02202EB8000C0F880127047D5
:102310004907090E002803DA00F00F000C4A00E01C
:102320000C4A815470470000C0A8012038A9012040
:1023300064A4012018021000F00A10003C021000F2
:1023400000800120BF02100000100020F89E012034
:1023500014ED00E000E400E0FE4801680029FCD133
:102360007047FD4800220260FB481C380260FB48B1
:10237000026101210161826081600260016002608E
:10238000F449A0F574700B68002BFCD1F4490B7B69
:1023900043F020030B730B7B23F040030B730B7B89
:1023A00023F080030B730B7B23F020030B73C0F827
:1023B000D823C0F8E023EB4802707047E548183096
:1023C00001680029FCD1704730B5E448002474301E
:1023D0000460E24880300460E048C4600121C160CC
:1023E000C460046001600460DF4D202028706870C4
:1023F000DB49593D0873A4200873D648183001689A
:102400000029FCD1FFF7ADFFD848046085F83440BF
:1024100030BDF0B5D64A1278442A0BD0542A0BD0DE
:10242000814200DA084600234FF4F832C94ECC4905
:102430005C2727E02720F6E71820F4E7154600245C
:1024400004EB010E12F804C0641C8EF860C00C2C62
:10245000F6DB3468002CFCD18B76CF7605F10C02CC
:1024600004EB010E12F804C0641C8EF860C00C2C42
:10247000F6DB3268002AFCD15A1C8A76CF7605F149
:1024800030029B1CB3EB400FD8DBF0BD2DE9F047C9
:102490009246089E5B1EC6F108010022B04C01F076
:1024A000FF0C1546002189469A420BDA00EB020820
:1024B000875C98F8018027FA06F708FA0CF847EAD3
:1024C000080703E007D1875C27FA06F701EB040849
:1024D00088F8607003E001EB040888F8609001F16F
:1024E000010102F101020C29DEDB9A490F68002F7D
:1024F000FCD10AEB0501A1765C21E1766D1C022D71
:10250000D0DBBDE8F08778B500259A4E00950446EB
:10251000006A112332782946FFF7B8FF0095182387
:1025200072780021606AFFF7B1FF78BD00B58BB00B
:1025300000208DF80000684601F08DF96846FFF72D
:10254000E2FF0BB000BD2DE9F0470024DFF8048264
:1025500083498246254626464FF05C0900209C426E
:1025600006DA00EB010C1AF804708CF8607002E0D7
:10257000471887F86060641C401C0C28EFDB00BF24
:10258000D8F800000028FBD15019887681F81B90FC
:102590006D1C032DE2DBB4E730B5764D044640698F
:1025A0001623AA780021FFF7CEFFEA78A069BDE8DC
:1025B000304020230021C6E700B58BB000208DF805
:1025C0000000684601F047F96846FFF7E5FFB8E705
:1025D000F0B50024624D05E0165D6719641C87F8AC
:1025E000606064B29C42F7DB5A4A1468002CFCD14C
:1025F000A976184340F01000E876F0BD70B50023CE
:10260000574C05E0CD5C1E195B1C86F860505BB230
:102610009342F7DB4F490B68002BFCD1A07642F0C8
:102620001000E07670BD30B5534C072202202168BF
:1026300001F24271FFF7E2FF2168022201F24A71C2
:102640000920FFF7DBFF2168062201F24D710B2004
:10265000FFF7D4FF20684949494D90F8530709789E
:1026600000F0F00001F00F01084328700122294614
:102670001120FFF7C3FF2168032201F257711620D2
:10268000FFF7BCFF3D480122401E007800F00F011B
:10269000206890F85A0761F31F1028702946192006
:1026A000FFF7ACFF2168012201F25B711A20FFF7EE
:1026B000A5FF2168042201F25C711B20FFF79EFF39
:1026C0002E480222C01C2946007828702B48401C46
:1026D000007868701F20FFF791FF2168022201F542
:1026E000EC612120FFF78AFF24480222001D2946C1
:1026F000007828702148801C007868702720FFF738
:102700007DFF2168012201F263712A20FFF776FF25
:102710002168072201F266713D20FFF76FFF2068F4
:10272000022290F86E17297090F86F07687029469A
:102730004420FFF763FF2168022201F5EE61462085
:10274000FFF75CFF2168082201F272714820FFF751
:1027500055FF17E0040B00221C0C0022D0030022BE
:10276000001000201A02100059000020400500222D
:10277000B4021000380210003C021000F6FF010005
:10278000540B10002168082201F27A715020FFF7E3
:1027900035FF2168052201F284715820FFF72EFFD2
:1027A0002268FF4D92F88F072870012302F28A7287
:1027B000FA210020FFF70CFF2268012302F28C723D
:1027C0000E21C020FFF704FF2268012302F28D7260
:1027D0001421C020FFF7FCFE332068740B20A8747E
:1027E00030BD10B5FFF71FFFFFF7E6FEFFF79EFEB7
:1027F000BDE810400DE630B55C2562225E236424FE
:10280000E849442801D0542804D00D704A708B70D8
:10281000CC7030BD30200870352048703220887070
:102820003720C87030BD38B50546DF4C406D00908C
:102830006073010AA173010CE173000E207404227D
:1028400069462B20FFF7DAFE012205F153012F2004
:10285000FFF7D4FE95F85300A074E86D0090E07483
:10286000010A2175010C6175000EA07504226946EC
:102870003520FFF7C3FE0098800F84F84000CB4955
:10288000012208703920FFF7B9FE38BD00EBC00106
:1028900001EB00106FF0030101EB800010B5C4499B
:1028A000C44A0978146890FBF1F0401EC1B20123BC
:1028B00058075CB10024146080F8341090F83F1081
:1028C00090F83F408C42FBD0136010BD80F834106C
:1028D000FAE7B94801680129FCD170477CB5044684
:1028E00000208DF804002046FFF79DFFAC48B4F8A7
:1028F0004C10401C0180217D00F8011C94F84E1002
:102900004173A94EA07D86F83600AC4D286890F83A
:1029100042078DF800006188890503D520F0120078
:102920008DF80000012269460220FFF767FE0422AD
:1029300004F115010520FFF761FE2968022201F26A
:102940004A710920FFF75AFE022204F11A010C20F5
:10295000FFF754FE022204F11C010E20FFF74EFE89
:10296000052204F11E011020FFF748FE286890F8A8
:102970000907C0070AD0012201A94420FFF73EFE43
:10298000022204F142013F20FFF738FE012204F148
:102990004F013D20FFF732FE012204F15001442097
:1029A000FFF72CFE844801680129FCD194F84E0001
:1029B00030732320FFF76AFF7CBD7EB50446FFF726
:1029C00032FF7748B4F84C10401C018094F8451051
:1029D00000F8011C94F84E104173784D286890F867
:1029E00042078DF800006188890503D520F01200A8
:1029F0008DF80000012269460220FFF7FFFD012249
:102A000004F115010520FFF7F9FD94F84B00664E1F
:102A1000C00708D0286800F2957190F8950786F8ED
:102A20003600012206E094F8460086F836000122BE
:102A300004F146010620FFF7E1FD012204F1440103
:102A40000720FFF7DBFD012204F14A010820FFF710
:102A5000D5FD286890F80A17C90734D061888A071D
:102A600031D494F84B2052072DD4B0F80D27ADF88F
:102A70000420B0F86A07ADF80800090609D594F8F3
:102A800041100844ADF8080094F840001044ADF837
:102A90000400022202A94120FFF7B0FD022201A991
:102AA0000920FFF7ABFD296891F80907C0071DD081
:102AB000012201F26E714420FFF7A0FD022204F111
:102AC00042013F2010E090F80907C00707D000201E
:102AD0008DF80400012201A94420FFF78FFD296829
:102AE000022201F24A710920FFF788FD012204F158
:102AF00051011720FFF782FD012204F15201182035
:102B0000FFF77CFD022204F134011B20FFF776FD64
:102B1000022204F136011D20FFF770FD012204F1AD
:102B200038012120FFF76AFD012204F1390122203A
:102B3000FFF764FD012204F13F012A20FFF75EFD4B
:102B4000012204F14F013D20FFF758FD1A480168AA
:102B50000129FCD194F84E0030732320FFF796FE34
:102B60007EBD30B50446C069104D0122007800F0EA
:102B70000F011248006890F85A0761F31F1028707F
:102B800029461920FFF73AFDE0680222294600781D
:102B900028706068007868701F20FFF72FFD0FE035
:102BA000530000203802100000100020540B1000C9
:102BB000C102100040050022000B00223C02100060
:102BC00020692946022200782870A0680078687081
:102BD000BDE83040272011E58449854B0A6892F80A
:102BE0004D2702700A68B2F85027428009681B78A6
:102BF00001F2537103F00F030A7802F0F0021A4356
:102C00000271B1F80B20C28002818A7B82720A7C39
:102C1000C27289780173704710B5044601460122DB
:102C20000B20FFF7EBFC0222A11C0E20FFF7E6FCB5
:102C30000122211D1120FFF7E1FC0222A11D1D2010
:102C4000FFF7DCFC022204F108012520FFF7D6FC87
:102C5000012204F10A012220FFF7D0FC012204F135
:102C60000B012A20FFF7CAFC04F10C010122BDE888
:102C700010401320C2E45F4908B5042008735B4884
:102C800001226946006890F8430720F008008DF89B
:102C900000000320FFF7B2FC08BD5649202008734E
:102CA00070475449C020087370475349002008609A
:102CB0007047514840300168002909D00021016067
:102CC0004FF0005191F83F0091F83F208242FBD035
:102CD0007047494900220A60484A10700120086084
:102CE000704770B5464C2368002BFCD11D4603E0AD
:102CF000C6185B1C86F880508B42F9D32368002BE2
:102D0000FCD102E0C45CD4545B1C8B42FAD370BD8E
:102D100010B501F0ACF8FFF7CCFF3A48007878B175
:102D20003748183801680029FCD13248C07840067D
:102D300002D5354901200870BDE81040FFF7BCB945
:102D400032490020087010BD10B501F090F82A49F2
:102D500000200860BDE81040FFF72BBA10B501F065
:102D600086F8FFF7A6FFBDE81040FFF722BA214B17
:102D700010B59876DA76224818380468002CFCD111
:102D8000012083F8E0001E480468002CFCD10020DC
:102D900005E0C41894F860400C54401C40B29042C6
:102DA000F7DB10BD08B543F6FF70ADF80000022256
:102DB00069463F20FFF722FC0220ADF80000012207
:102DC00069463D20FFF71AFC0A49E02008734FF4DA
:102DD0001670FDF75FFA022269468720FFF7C7FFEA
:102DE000FFF749FFBDF8000008BD00003C021000DD
:102DF000F6FF010000100020000500222D00002039
:102E00001C0B00221A02100019021000BF02100051
:102E10000446012008F0EFFA00210F20226808F094
:102E200002FB01210F20626808F0FDFA02210F2049
:102E3000A26808F0F8FA03210F20E26808F0F3FA1C
:102E40000C210F20226908F0EEFA0E210F20626992
:102E500008F0E9FA0F210846A26908F0E4FA2021F7
:102E60000F20E26908F0DFFA3A48026821210F20BA
:102E700008F0D9FA37481038026822210F2008F0EC
:102E8000D2FA34480C38026823210F2008F0CBFA1C
:102E900030480838026824210F2008F0C4FA2D4871
:102EA000001D026825210F2008F0BDFA294834389A
:102EB000026826210F2008F0B6FA26481438026866
:102EC00027210F2008F0AFFAFDF781FC02463021E0
:102ED0000F2008F0A8FAFEE710B5012807D0022855
:102EE0000ED0032805D0042805D0042109E00121D3
:102EF00007E0032105E00021032008F07CFAFEE74B
:102F00000221BDE81040032008F075BA10B5044650
:102F10000146042008F06FFA012C00D1FEE710BD35
:102F20000146082008F067BA0146062008F063BA97
:102F300010B504460146072008F05DFA012C04D0C4
:102F4000022C03D0032C02D1FEE7FEE7FEE710BD02
:102F50000320EDE738ED00E000F089BF70477047CF
:102F60002A4810B5016821F00401016000F07FFFDC
:102F7000BDE8104012F088BA704700F078BF10B575
:102F800000F075FFBDE8104008F09CBC10B500F0E3
:102F90006EFFBDE810404FF0005001F038B97047A7
:102FA000704710B500F063FF19480078012803D07E
:102FB000BDE8104008F0FBB8BDE8104001F0ECBFE0
:102FC000704710B500F053FFBDE810404FF080503F
:102FD00001F01DB9704770477047704770477047E0
:102FE00010B500F044FFBDE81040FDF7EEBD10B590
:102FF00000F03DFF06480078012803D1BDE81040ED
:1030000001F07ABF10BD70477047000010ED00E07E
:10301000BE02100010B55621C44812F052FBC3483E
:10302000C349C44A01808280C3494180C34BC380E5
:10303000C34C0481C34C4481C34C8481C34CC481C0
:10304000C34C0482C34C4482C34C8482C34CC482AC
:10305000C34C0483C34C4483C34C8483C34CC48398
:10306000C34C0484C34C4484C34C8484C34CC48484
:10307000C34C0485C34C4486C34C8486C34CC4866D
:10308000C34C0487C38741878287C249A0F8401098
:10309000C1490968B1F86220A0F84220B1F8C62100
:1030A000A0F84420B1F8A120A0F84620B1F8F02102
:1030B000A0F84820B1F85421A0F84A20B1F85221D4
:1030C000A0F84C200022A0F84E204A7DA0F8502005
:1030D0000A7DA0F85220B14AA0F85420AD4891F8DA
:1030E0004E274280B1F85C17C180018110BD10B538
:1030F000FDF75EFF00EB104081B2A948172203786C
:10310000A848442B04D1382902D01D21017010BDDC
:10311000027010BDA4481322A5490378A348552B7B
:1031200002D0027019200CE09B4B1B6893F8113100
:10313000DB0702D09C4A521C127802709A48801C0D
:103140000078087070472DE9F047FF222821994840
:1031500012F0AFFA9748FDF7E8FEDFF858920E2418
:103160000126D9F80410072545F2AA58414503D095
:10317000D9F8081041453BD1D9F80000D9F808200A
:10318000070E424506D1032F01D1C0F30136C0F32B
:10319000032502E00120FFF7C7FED9F804104145DE
:1031A00004D199F8000000F01F0402E00220FFF7AC
:1031B000BBFE032F22D1D9F8143041467E4A48463F
:1031C0008B4201D1036900E07C4B1360C3697C4AE8
:1031D0008B4201D1836900E07A4B1360436A7A4ADB
:1031E000434502D1D9F8200000E07848106005E09E
:1031F0000120FFF799FE0220FFF796FE664801685E
:1032000091F8F007400702D591F8F20704E006F0C4
:1032100003002A0740EA126091F8DA16C90711D0B4
:10322000B9F80C108AB242450CD05F49891F097861
:10323000C52907D120F0F0015B48401F0078000746
:1032400041EA1060624981F860000120887611200F
:10325000C8766048017864F304010170BDE8F08726
:1032600070B5FDF734FBFDF741FD4B4D2868007844
:10327000A52802D00120FFF749FE4FF00850012495
:10328000C0F898432868544A90F8271101F00101CA
:10329000116090F82701111DC0F340000860FDF790
:1032A00043FEFDF72BFBFEF70DF8042801D1FFF7D5
:1032B00013FEFDF767FDFDF7B1FD4548802180F85D
:1032C0006010042181761121C176FFF73CFFFFF7E2
:1032D00021FF41486C380460FFF709FF3E480C3875
:1032E000046070BD41F2085010B581064881FFF7B7
:1032F000B7FFFFF78FFE39493F20086038490020AB
:10330000086039483749016001F5086037490860AD
:10331000374800F03FFBFCF7B7FF00F06BF8FCF715
:10332000B1FFFDF735F8012010BD000000000120BD
:103330000080012058D70120D8CF0120560001205D
:10334000009E0120364001207240012034410120BE
:1033500070410120A4460120E0460120E22901201D
:103360001E2A0120B2400120EE400120204701200A
:103370005C4701203E2E01207A2E0120C22D012023
:10338000FE2D01202A40012000C801200CC8012088
:10339000D6290120FC2410003C0210002A30012014
:1033A000B402100064021000F2FF0100C20210001B
:1033B000C10210001C251000C402100040A5AE027E
:1033C000C802100000879303CC02100000366E0183
:1033D000001000202000002088040022304101203D
:1033E000B0021000E412100070021000740210000D
:1033F000E42310007FB5FCF7A3FF204D002400BF9D
:1034000005EB441000F11002017F4CCACDE90261C6
:10341000CDE900230FC8FDF777F910B10220FFF7BF
:1034200087FD641C072CEBDB144D002415F1E0052F
:1034300004EB440005EB8001091D55F8200006C986
:10344000FDF7E2F810B10220FFF772FD641C082CB2
:10345000EEDB0B4D002400BF05EBC400416855F8BE
:103460003400FCF7EBFF10B10220FFF761FD641C94
:10347000062CF1DB7FBD4068FFF76ABDD458010020
:10348000145A01002DE9F0479246012547F6F872DB
:1034900056429946AC460024089F16E030F8143096
:1034A00031F81480A8EB03031BB29A4200DD1A46E0
:1034B0009E4200DA1E46002B02DA4FF0000502E0C1
:1034C00001DD4FF0000C04F10104BC42E6DB55EADB
:1034D0000C0306D0012D01D02DB108E0BCF1010F85
:1034E00005D1002203E0BCF1010F00D132460025D6
:1034F0002C462B4611E000BF30F8136031F813C0A2
:103500001644ACEB060636B24E4505DAC9F1000C9E
:10351000664501DD3544641C5B1CBB42ECDB95FB5E
:10352000F4F10A44002105E030F8113013442AF880
:103530001130491CB942F7DBBDE8F08770B503468E
:1035400000200246FE4C09E09D5C521C05F00F066F
:1035500004EB1515A65D2D78304428448A42F3DB30
:1035600070BD884200D308467047884200D808469C
:103570007047884200D30846904200D310467047F7
:103580002DE9F047D0F810C00568046A85FB0C12DD
:10359000A1FB041242694368914683FB026282697F
:1035A000E246A6FB02677618D0E9021781FB07C83E
:1035B000C069ACFB00C81CEB060682FB0A2CA2FB10
:1035C000011280FB0902A0FB0502401884FB0712D0
:1035D000A1FB03120818301A4FEAE071ACE72DE99D
:1035E000F04389B00446006800906068019020694B
:1035F00002906068039020690490A069059020699A
:103600000690A0690790E06908900D466846FFF7AC
:10361000B7FF8046A0680190E06804906069079059
:1036200089466846FFF7ACFF064660680190A068CF
:10363000029020690490E0680590A0690790606995
:1036400008900F466846FFF79BFFC5E90401C5E9EE
:103650000267C5E9008909B0BDE8F0832DE9FF4F95
:103660004FF0000A89B09B465746D146D046564691
:10367000554654462021684612F045F80B9810E054
:103680000999824431F9102000FB00F102FB016628
:103690008844414302FB009901FB004417440D4458
:1036A000401C5845ECDD0B99ABEB0100401CCDE90B
:1036B000000ACDE90654CDE90486CDE902796846D1
:1036C0000A99FFF78CFF0DB0BDE8F08F9D480068A8
:1036D000017B427B41EA0221827BC07B41EA0241BD
:1036E00041EA0060400070479648006801794279DD
:1036F00041EA02218279C07941EA024141EA00604F
:10370000704700B5FFF7E2FF4008400000BDF8B584
:103710000E460446FFF7F5FF0090FFF7D7FF05467A
:1037200004216846FFF70AFF04EB400700240099D4
:10373000204623464FF0010C0CFA03F20A4207D050
:103740002A4204D037F8102026F81420641C401CAC
:103750005B1C1E2BF0DBF8BDC6E7FCB50E4607462A
:10376000FFF7CFFF0190FFF7BFFF0090FFF7BCFF0F
:103770000546042101A8FFF7E1FE0446042168463E
:10378000FFF7DCFE00EB440007EB40070020009948
:10379000044603464FF0010C0CFA03F20A4207D02C
:1037A0002A4204D037F8142026F81020401C641C4C
:1037B0005B1C202BF0DBFCBD62490020096891F8FE
:1037C000E81119B160480178012088404000704735
:1037D00070B55C490020096801F5F57491F8E8516D
:1037E000002D09D091F8E6214FF00103D20704D053
:1037F00091F8E91103FA01F070BD03FA02F63542BF
:1038000003D0A65C03FA06F10843521C062AF4DB37
:1038100070BD70B500224B4C012303FA02F62568F7
:1038200095F8E851354203D030F8125021F8125083
:10383000521C062AF1DB70BD00B5FFF747FF40F0D0
:10384000010000BD50E7414A520102EB810101F144
:103850000851086070470178012916D03C49416041
:10386000491C81603B4941613A492C3181613849A9
:10387000891CC160491C0161491FC16135496C3116
:10388000016234498D3141627047314910394160DC
:10389000491C81602F49BD3141612E49E931816167
:1038A0002B490E39C160491C0161491FC1612A4978
:1038B000016229492131E6E701EB8010801001EB1C
:1038C00041014900182291FBF2F300EB400000F5A2
:1038D000F83002FB1311006820F07F40C84000F070
:1038E0003F00704701EB8010801010B501EB4101E3
:1038F0004900182391FBF3F403FB141300EB400081
:1039000000F5F8303F2401689C40A1439A400A43E7
:103910000270110A4170110C817010BD821002EB0F
:1039200042020A4400EB40004000182190FBF1F3F2
:1039300001FB1301106820F07F40C8400EE000003A
:10394000445A01003C021000640210003041012082
:10395000F7FF010040F8010069F9010000F03F00A5
:103960007047831003EB430310B51A4400EB40008B
:103970004000182390FBF3F403FB14033F2410686A
:103980009C40A043994001431170080A5070080CF4
:10399000907010BD2DE9F14F7821009811F0B3FE21
:1039A000FFF74AFF4FEA5008FFF79EFE4FF0000C6A
:1039B000814666464FF0010A0AFA06F111EA090F3C
:1039C0001ED00024012725460AFA0CFB0AFA05F04E
:1039D00010EA080F0FD031462846FFF76DFFA042CE
:1039E00007D00099009A51F8271041EA0B0142F8DC
:1039F000271004467F1C6D1C272DE7DB0CF1010C02
:103A0000761C202ED8DBBDE8F88F2DE9F04F8346D9
:103A1000FF4800242246D0F800A001219AF8145053
:103A2000A5F1010621E003200123DFF8E8E303FA12
:103A300001F99AF8157015E05EF820C01CEA090F2C
:103A40000FD0A0F1010300FB051C03FB05183BF997
:103A50001CC03BF91830BCEB030300D55B421C448F
:103A6000521C401C8742E7DC491C8E42DBDC02B959
:103A7000012294FBF2F027E62DE9FF4F85B00021EB
:103A80000391029101910091E149012B0C6894F896
:103A9000775005F00F0700D10027667D94F87A3043
:103AA000C7F1100BB34200D21E460023049301233A
:103AB00081E000BF4FF00009C84603241FE0D5494C
:103AC00051F824C0012199401CEA010F04FB053183
:103AD00030F911C0A4F1010101FB053130F91110D9
:103AE000ACEB010106D0002900DA4942DDF818C02C
:103AF000A1EB0C01002900DA49428944641CB4425C
:103B0000DDDB31469EF815A01FE0C24C54F821C001
:103B100001249C401CEA040F01FB053430F914C059
:103B2000A1F1010404FB053430F91440ACEB0404AA
:103B300006D0002C00DA6442DDF818C0A4EB0C04B7
:103B4000002C00DA6442A044491C8A45DDDC04995B
:103B5000012910D10199B1EB090101D5C1F1000191
:103B6000039C214403910099B1EB080100D549421F
:103B7000029C21440291CDE900899EF87B10994274
:103B800016D11168039D79430BFB0511CC1701EB8E
:103B90001471091111609168029D79430BFB0511A5
:103BA000CC1701EB1471091191600021039102916E
:103BB00001215B1C04919649D1F800E09EF8145055
:103BC000691E99423FF776AF5068039978430BFB23
:103BD0000100C11700EB117000115060D068029B0A
:103BE00078430BFB0300C11700EB11700011D0608C
:103BF00009B069E530B5044600200222A1F10101B7
:103C00000BE000BF04EB420534F9123035F9025CD9
:103C10005B1B00D55B421844521C8A42F2DB30BD6C
:103C20002DE9F04F7A49002318460C6894F849149E
:103C3000257DC1F3C001B4F865B4B4F867A4A5EB61
:103C4000010924E00322DFF8CCE1DFF8CC81667DB6
:103C500019E000BF5EF822C0012707FA01F71CEA4D
:103C6000070F0ED102FB051738F917C0A2F10107A3
:103C700007FB051738F91770BCEB070700D57F4223
:103C80003B44521CD2B29642E4D8491CC9B2894581
:103C9000D8DC62499B450B6002D2534500D201201B
:103CA00012E503E011F8013B00F8013B521EF9D286
:103CB00070477CB50D460446FFF723FD0090FFF7E3
:103CC00013FD019000980421400800906846FFF71A
:103CD00035FC0646042101A8FFF730FC3044820081
:103CE00021462846FFF7DDFF7CBD0B4648490968A1
:103CF0004A7D097D521C4A43014652001846D0E7CE
:103D00002DE9F0410446642111F0FDFC0025404EF0
:103D100025806580306890F8940700F0010045EA3E
:103D200040106080A560FFF787FDE060FFF7DCFCD6
:103D30003B4F20613B497888608309785A2904D138
:103D40003849491C097808446083306800F246709D
:103D5000C27A817A02F03F0241EA0221A1834178CE
:103D6000E17590F8491021750178A1758178217667
:103D7000017BA1772B49407B083100F0F0000978E6
:103D800001F00F010843E077FFF716FD6062FFF7CF
:103D90001FFDA062FFF7B5FCE062FFF7A5FC206302
:103DA0002C34F8882081E081306800F5E96090F8D3
:103DB0004810217690F84A10617690F84B10A17661
:103DC00010F8461CE17601212177657790F84920AB
:103DD000A277C28A62812282027E2273427E62734D
:103DE000827EA274C27EE274827F84F8232065758D
:103DF000257510F8502C2C3CA0F5E960D20718D09E
:103E000090F8F90600F00F0084F8600060880BE07D
:103E10003C021000E4231000D8CF012088021000DB
:103E2000FC241000EEFF010040F480606080BDE8DB
:103E3000F08184F86010FAE710B50446FCF724FA24
:103E4000012C0BD1F948006890F81001800705D5C6
:103E5000FCF745FD38B1FCF73EFD04E0FCF73FFD03
:103E600008B9FCF734FDBDE81040FCF70BBA0020A0
:103E7000E2E7EE4B10B51A68947E640704D5D28A47
:103E80000468A2EB040202601A68947EA40703D5BA
:103E9000128B0C68121B0A600268002A00DA0022EA
:103EA00002601C68E48AA24200DD224602600A68C1
:103EB000002A00DA00220A601C68248BA24200DD7E
:103EC00022460A601B689B7EDB0702D003680B60FA
:103ED000026010BDF0B500252C4608E031F91460F1
:103EE00030F91470F61B964200DD6D1C641C9C4278
:103EF000F4DB012D01D90120F0BD0020F0BD2DE93A
:103F0000F0439946DDE90787002423460EE000BF11
:103F100031F9135030F9136005EB020C664503DAF2
:103F2000A5EB0905AE4200DC641C5B1CBB42EFDB69
:103F3000444502D90120BDE8F0830020FBE72DE9CC
:103F4000F04F9246DDE909B7012547F6F87256426F
:103F50009946AC46002416E030F8143031F814804D
:103F6000A8EB03031BB29A4200DD1A469E4200DA18
:103F70001E46002B02DA4FF0000502E001DD4FF093
:103F8000000C04F10104BC42E6DB55EA0C0306D048
:103F9000012D01D02DB108E0BCF1010F05D10022A7
:103FA00003E0BCF1010F00D1324600252C462B4620
:103FB00011E000BF30F8136031F813C01644ACEBC9
:103FC000060636B24E4505DACBF1000C664501DD3A
:103FD0003544641C5B1CBB42ECDB95FBF4F10A44EA
:103FE000002105E030F8113013442AF81130491C43
:103FF000B942F7DB3FE5F0B506460020044605462A
:10400000521C059F0AE000BF36F911C09C4504DD33
:10401000A44502DD64460D460120491C9142F3DBB4
:104020003D60F0BD30B50268002513460AE000BFD0
:1040300050F82540944201DD224602E09C4200DA1D
:1040400023466D1C8D42F3DBD01800EBD07040107E
:1040500030BD70B5754B1B685C7D1B7D641C5C437B
:10406000002307E032F8135030F81360AD1B21F83D
:1040700013505B1CA342F5DB70BD6D490120086045
:1040800081026C4811F01DBB2DE9F0410646154632
:104090000F46302801D1FFF7F0FF654C2068284417
:1040A000401CB0F5806F01D2206801E00120206043
:1040B000604908700E542DB10844401C2A46394608
:1040C000FFF7EFFD20682844401C2060AFE65A4807
:1040D00000210122017042708170704756480078BB
:1040E000704730B5514A126892F80A27D3070BD0AF
:1040F000D506524A4FF000034FF0010407D5151FB3
:104100002860012901D1136030BD146030BD4B4DD2
:10411000083D28600129F8D0F5E72DE9F84F434C18
:1041200000264FF00057206890F80A07450997F8D5
:10413000510000D101250720FCF791FAFCF747FB5D
:10414000DFF8F480C8F8040020684FF0010490F80C
:104150000A07C00603D5062087F8510001E087F85A
:10416000514000210120FFF7BCFF4FF41670FCF70F
:1041700091F84FF0E02A4FF480594FF0000BCAF845
:1041800080924FF040514446D8F80400FCF7A5F95E
:10419000DFF8AC80012088F80000E8B2FCF786FC6C
:1041A000CAF800916B4600224FF040516068FCF75E
:1041B000B5F94FF040516068FCF78FF90098C000E6
:1041C00000D501262078B04202D1607801280CD1B8
:1041D00097F85100AEB140EA0522DD20616807F092
:1041E00022F900BF84F801B0267000210846FFF7CD
:1041F00078FF88F800B00720FCF74CFA2078BDE87B
:10420000F88F40EA0521092007F0F5F8EAE710B534
:1042100004460C484FF480510160FCF754FC0648FA
:1042200021464068BDE81040FCF728B93C02100068
:1042300040021000D6250120D4021000280A0022D6
:10424000BF02100080E100E070B52748006890F8D8
:10425000D010CA0725491DD090F8D12002F00F02D6
:10426000531C0A2B01D90A2200E0521C00F1D2048F
:1042700000234D8805E000BF34F81360B5420CD030
:104280005B1C9342F8DBB0F84E274A80B0F8E82078
:104290000A8002E0B0F84E274A8090F88023D207C7
:1042A0001DD090F8812302F00F02531C0A2B01D974
:1042B0000A2200E0521C00F282350023CC8804E080
:1042C00035F81360B44209D05B1C9342F8DBB0F8B8
:1042D0005C27CA800A81B0F8AC03888070BDB0F852
:1042E0005C07C880088170BD3C021000FC241000EF
:1042F00010B501461C22F648FFF7D3FCBDE810407C
:104300004FF400610120FCF7B9B82DE9F0419AB0F3
:1043100080460D4614466846FFF7F2FCE0074FF072
:10432000010701D0ADF80070A00705D5BDF8000069
:1043300040F00800ADF80000600605D5BDF80000AB
:1043400040F48060ADF80000600733D5E14E30687E
:1043500090F80A07C0070DD0FFF7DFFE06210128FD
:1043600005D0BDF8020040F00200ADF80200ADF843
:10437000001005E0BDF8000040F00600ADF80000B8
:10438000A00711D1BDF8000040F00100ADF8000019
:10439000306800F2211041788DF8171001788DF8FF
:1043A0001E1080788DF82200CB480088800501D54A
:1043B0008DF84970C949ADF81A80ADF83A50ADF89A
:1043C0003450097840465A2905D1C449491C097816
:1043D0000844ADF81A00AFF2E700BD4D03244FF4D6
:1043E000006602906846FDF793FA19AB0022314649
:1043F0000120FCF793F831460120FCF76EF828788D
:10440000002804D0FEF768FD641E002CEADC1AB018
:10441000BDE8F0812DE9F041AE4A00242146126842
:10442000254610F4D17F04D092F8221004254FEADB
:10443000111110F0050F05D092F8213045F001055B
:104440004FEA1314C00604D592F8210045F0020586
:1044500004098C4200DA0C46641C002DD8D00026DA
:104460009F4F05E0F98878882A46FFF74EFF761CB3
:10447000A642F7DBCCE72DE9F35FDFF858820C4664
:10448000D8F80000467D017D90F82100761C00F0F0
:104490000F074E437F1C4FF48851924811F033F9B7
:1044A0000025DFF84092DFF838A2DFF824B21AE0E6
:1044B000BAF8061001220098FFF727FF8A49DBF8B7
:1044C000040005F024FF884A0020494608E000BFA8
:1044D00051F8203032F910C0634441F82030401CBC
:1044E000B042F5DB6D1CBD42E2DBD8F800107F4A1C
:1044F000404691F82110127801F00F01491C012A61
:1045000025D17B4ADFF8ECB1DFF8ECC11278DFF897
:10451000ECA1521E4E4615E09BF800305B1E551C68
:104520000AE007683F7D05FB07375B1C56F82780CC
:1045300098FBF1F824F817809CF800707F1EBB42AE
:10454000EFDD521C9AF800305B1E9A42E4DD6C4AA3
:104550001278012A22D16B4ADFF8ACA16B4F127896
:10456000DFF8AC81521E14E09AF800305B1E551C37
:104570000AE00668367D05FB06365B1C59F826C046
:104580009CFBF1FC24F816C03E78761EB342F0DDA9
:10459000521C98F800305B1E9A42E5DDBDE8FC9F96
:1045A0002DE9F35FDFF82C818B46D8F80000457DBC
:1045B000017D90F821006D1C00F00F074D437F1C1A
:1045C0004FF48851474811F09EF80026454CDFF81B
:1045D0001091DFF8FCA018E0B9F80610012200984D
:1045E000FFF793FE4049DAF8040005F090FE3E49DB
:1045F000002007E054F8202031F910301A4444F824
:104600002020401CA842F5DB761CBE42E4DBD8F833
:10461000000090F8210000F00F01491C002006E086
:1046200054F8202092FBF1F22BF81020401CA842F5
:10463000F6DBB3E72DE9F34F264D87B08B462868AC
:10464000182190F8210000F00F077F1C684611F038
:104650005AF800266C46DFF88890DFF874A0DFF87F
:10466000B48018E0B9F8061002220798FFF74DFE53
:104670002849DAF80C00FFF7CCF800204FEA0801CF
:1046800054F8202031F910301A4444F82020401CFE
:104690000628F5DB761CBE42E4DB286890F8210092
:1046A00000F00F01491C002001222B6802FA00F6DD
:1046B00093F8E831334205D054F8203093FBF1F3FE
:1046C0002BF81030401C0628EFDB09B0BDE8F08F56
:1046D000504010003C0210004C021000EEFF0100A0
:1046E000FC241000E4121000640B10008202100081
:1046F0007F0210007D0210007E0210008002100078
:10470000810210007B021000790210007A02100072
:104710007C0210002A4001202DE9F74FFD4D84B0A6
:104720009146286830F83B1F039140880290FEF7BD
:10473000E8FF0090FFF710F8019004216846FEF7AB
:10474000FDFE8046042101A8FEF7F8FE4044460025
:104750002868B10090F8220000F00F04641CEE48B5
:1047600010F0D1FF296891F8F002C20706D0800747
:1047700004D491F8F102044405F0A4FA0027DFF80C
:1047800098B3AA462FE0E548042205994088FFF730
:10479000BCFDDAF80010E24891F894178568C90763
:1047A00004D001692A46284605F038FBDAF80000F3
:1047B00090F8F002C10707D0800705D4D9492846F0
:1047C00005F09CFA70B1D74D0020594608E000BFB3
:1047D00051F8202035F910301A4441F82020401CAF
:1047E000B042F5DB7F1CA742CDDBDAF80010CA4CE3
:1047F000504691F8221001F00F0303F101034FF02E
:1048000000011CE05BF82120056892FBF3F295F8AB
:10481000F0725FEAC77C08D0BF0706D595F8F17241
:104820007F1C5743B5F8F222BA1AB1EB480F01DAF0
:10483000039D00E0029D2A4424F81120491CB14246
:10484000E0DB049810F0220F09D02046D9F80010C0
:10485000FEF75DFF2046D9F80410FEF77EFF07B093
:1048600034E72DE9F0479A46AA4B894600210125F5
:10487000AD4E1C681BE000BF32F8113030F81170EB
:10488000DB1B1FB200230AE0C3EB031C06EB8C0CFE
:104890005B1C3CF811801BB2B8442CF8118094F8D2
:1048A00080C305EB9C1C9C45EEDC491C09B2637D72
:1048B0008B42E1DC00209D4A19E000BF3AF810303D
:1048C00039F81010591A0BB2002108E002EB8116DA
:1048D000491C36F8107009B21F4426F8107094F87D
:1048E000806305EB96168E42F0DC401C00B2217D01
:1048F0008142E3DCBDE8F08770B5864D8C4E002424
:104900002868C4EB041100EB440006EBC111B0F8B9
:10491000EF00FFF745FE641C042CF1DB70BD2DE9B0
:10492000FE4F002582467B4C2F46DFF8FC81DFF8E6
:10493000FC91012612E000BF00EB4500C5EB05121B
:10494000B0F8B21308EB8200009009EB8510CDE9B6
:1049500001076A465046FFF7DFFE6D1C206890F89D
:10496000801306EB9111A942E6DC90F85011C907BB
:1049700010D090F8911109060CD5407D6A4942008B
:104980006C48FFF78EF920686849007D42006A484C
:10499000FFF787F9BDE8FE8FFEB55E4A5F49002448
:1049A0001268012300F4907592F88063C98803EBC4
:1049B000961306E002EB4406B6F8B263B14202D0A9
:1049C000641CA342F6DCA34219DDC5B192F8500184
:1049D000C00703D192F82002C0070FD05249C4EBA0
:1049E000041001EB80013C225448FFF75AF94F486C
:1049F000402200EB84115248FFF753F9FEBD00221C
:104A000002924E4A00924E4A01926A46FFF784FE95
:104A1000FEBD2DE9FC47FEF774FE0090FEF79CFEFC
:104A2000019004216846FEF789FD0446042101A88F
:104A3000FEF784FD374E204444003068A10090F812
:104A4000220000F00F077F1C334810F05CFE0025A9
:104A5000DFF8CCA0DFF8C090B04622E02F4840221B
:104A6000C1884088FFF751FCD8F80010DAF81460CC
:104A700091F89417C90705D032463046DAF810107D
:104A800005F0CCF90020494608E000BF51F820208D
:104A900036F910301A4441F82020401CA042F5DBC2
:104AA0006D1CBD42DADBD8F800001B4E454690F87D
:104AB00022004B4600F00F00401C002107E000BF21
:104AC00053F8212092FBF0F226F81120491CA14254
:104AD000F6DB1C493046FEF71AFE1B493046FEF74E
:104AE0003CFE286890F82010090711D5174C0021CA
:104AF0002160417D1348FFF77DF82168084420605C
:104B00002868017D1048FFF775F821680844206087
:104B1000BDE8FC873C021000E4121000FC241000E9
:104B200050401000D0A60120562B0120822C0120DD
:104B3000D6070120462C0120822D0120E2290120E8
:104B40001E2A0120C22D0120FE2D0120800410000C
:104B500070B504460020FBF782FD0320FBF77FFDC4
:104B6000F74D286890F82010490701D424F4006418
:104B700090F85011C90705D190F82012C90701D14A
:104B800024F0620490F88013490701D424F4B0742F
:104B900090F8D010490701D424F0040490F8E811EB
:104BA00009B924F0100490F8041309B924F4C0746E
:104BB00090F85002C00701D124F4806460060AD541
:104BC0003C22E049E048FFF76CF8DF484022DF492B
:104BD0003C30FFF766F8DE490020401C8842FCD3D9
:104BE000200502D52046FFF715FC600701D5FFF729
:104BF00083FE14F4907F02D02046FFF790FED54E3E
:104C0000E00726D0D4480178D448072902D00021F3
:104C1000017002E0007801284BD07088D049FFF77E
:104C2000BFFC286890F8200000070AD5CC48FEF7A2
:104C3000ECFECC490123CC4A08600146C848FEF787
:104C40001BFF286890F84904C00702D0204602F0F4
:104C5000C7FBE00603D57088C449FFF7EBFC60058D
:104C600001D5FFF7D6FE14F0820F0AD02046FFF7D9
:104C700093FE286890F84904800702D5204602F088
:104C800021FC600606D5B049B04BAE4A3C31AE4877
:104C9000FFF7E7FDB64901200870B649087006F035
:104CA00062FA0020FBF7F6FCBDE870400320FBF73A
:104CB000F1BC7088AA49FFF7DEFBB2E7F0B4A04967
:104CC0000022AD4C0B68B3F8EF10814213D2B3F859
:104CD000F510814201D803220DE0012103EB4105CB
:104CE000B5F8EF50A84201D10A4602E00DD2A1F179
:104CF00001028A420DD1C2EB021004EBC011F0BCDC
:104D00004FF4F0629648FEF7CCBF491C0429E5DB5E
:104D1000F1E703EB4103924D33F8ED2FC1EB0111A5
:104D20005B88801A00029A1A90FBF2F300204FF47D
:104D3000707604EBC11100BF01EB4002A2F5F062F6
:104D400031F91040B2F90020A41A5C4302EB24228E
:104D500025F81020401CB042EEDBF0BC70472DE976
:104D6000F04177490025854A0968854EB1F8B2338C
:104D700083421AD291F880339C0901EB4407B7F8BB
:104D8000B27387420AD9012404EB931313E000BFE6
:104D900001EB4407B7F8B273B84201D1254602E0EF
:104DA00008D2A4F10105A5421CD191F85001C00719
:104DB00008D103E0641CA342EADCF6E791F8200284
:104DC000C0074CD0C5EB051002EB80013C225D48CA
:104DD000FEF767FF06EB8511BDE8F04140225B4816
:104DE000FEF75FBF01EB4405B5F8B033B5F8B25339
:104DF000C01A0002EB1A90FBF3F391F85001C007C0
:104E000003D191F82002C00729D04E4DC4EB041104
:104E1000002002EB810100BF01EB400231F910706C
:104E200032F93C2CBF1A5F4302EB272225F81020F1
:104E3000401C1E28F0DB454D002006EB841100BF0E
:104E400001EB400231F9104032F9402CA41A5C43C6
:104E500002EB242225F81020401C2028F0DBBDE8BE
:104E6000F0812DE9F04147480124474E04700025A8
:104E70003560192000F0D2F8192000F0B7F8434F40
:104E8000052038724FF41670FBF704FA3E48443898
:104E90000560FF21397034600460E0E770B539487F
:104EA0003B4C01250570207F40F00400207724480A
:104EB000006890F81101C00705D00A2000F0AEF894
:104EC0000A2000F093F8002184F860105C22A2769A
:104ED0001120E07684F860505823A376E0762A4BC0
:104EE000443B1960294EFF213170042184F8601081
:104EF000A276E0761D6070BD70B52348002444386A
:104F00000460224D08352E79192000F07BF8C6F197
:104F1000FB002978C0B2491CB0FBF1F01D490870B4
:104F2000184804700648006890F81101C00702D0C4
:104F3000BDE87040B2E717495520891E087070BD62
:104F40003C021000E2290120D43F10001E2A01205B
:104F500020A10700FC241000AC0210007802100011
:104F600056000120840210005C241000D629012084
:104F700052021000A8021000D6070120562B012073
:104F8000822C0120BE021000480500222E000020C5
:104F900000100020F4FF010010B5264C207F40F0E7
:104FA000040020772448006890F81101C00702D05F
:104FB0000A2000F027F821490A7B214B00201860C5
:104FC00084F860005C23A3761123E3760978891ABC
:104FD00089B24FF4FA42B2FBF1F11A4A0909117091
:104FE0005521521E11701849087010BD00F01F02A3
:104FF0000121914040094FF0E02202EB8000C0F80F
:105000000011704700F01F020121914040094FF04C
:10501000E02202EB8000C0F88011704700F01F0210
:105020000121914040094FF0E02202EB8000C0F8DE
:1050300080127047001000203C0210002E0000205B
:1050400004050022F3FF0100BE02100010B5014666
:105050001C22FC48FEF725FE8021BDE810400120FF
:10506000FBF70CBA30B59BB004466846FEF748FE25
:105070000021012C02D0022C02D008E0012000E027
:105080000820ADF800008DF816108DF81410BDF84A
:105090000200AFF2470140F4A670EA4D0291ADF86C
:1050A000020003246846FCF733FC19AB0022802180
:1050B0000120FBF733FA80210120FBF70EFA287854
:1050C000002804D0FDF708FF641E002CEADC1BB0AA
:1050D00030BD2DE9FC5F4FF0000BFEF76DFB044681
:1050E000FEF776FBD84907460020086048608860D4
:1050F000D6494FEA540980460860486088604FF0FE
:10510000010A0220FFF7AEFFCE4800242646C06801
:10511000CDF800000AFA06F010EA090F38D0002591
:105120000AFA05F1394230D0C9490AFA04F009688F
:1051300091F8E811014228D029463046FEF7BCFB21
:10514000C349C14A096832F91430B1F80AC2B3EB55
:105150000C01009B33F91430A3EB0C0C00D5494231
:10516000BCF1000F01DACCF1000C614504DBB7495A
:1051700022F8143021F814003F2805D2401CC2B296
:1051800029463046FEF7AEFB641C6D1C202DC7DBA4
:10519000761C272EBEDBFDF73CF908F10108B8F1BB
:1051A000400FAEDB012000900220FFF75BFFD046EE
:1051B0000026DFF89CA2354608FA05F010EA090F30
:1051C0001ED0002408FA04F1394216D0DAF8001093
:1051D00008FA06F091F8E81101420ED09B482146EA
:1051E00010F81600019002462846FEF77BFB019856
:1051F0003F2801D300200090761C641C202CE1DBAA
:105200006D1C272DD8DB009810B90520FDF788FE0E
:10521000FDF7FFF80220FFF725FF8A488D49C06897
:10522000FEF7F7FADAF800408A4D002094F8E831EA
:10523000424600BF02FA00F10B421CD035F91010B3
:10524000002902DC4BF0020005E040F6FF76B14297
:1052500003DB4BF00100834610E0B4F80A72B4F8A7
:10526000BE6107EB060C8C4505DABF1B8F4202DDE1
:105270000EB14BF0040B401C0628DBDB5846BDE8A2
:10528000FC9F2DE9F05F72490A6892F8300105062B
:105290007148037803F00F0407D492F83E1121F00F
:1052A0000F0121430170BDE8F09F0025DFF894A1B4
:1052B000834604702E46012789460220FFF7D2FE5E
:1052C0006449DAF80C00FEF7A4FAD9F80020614B23
:1052D000002092F8E81100BF07FA00FC11EA0C0F59
:1052E00005D033F910C0B2F80882C445DBDB401C9E
:1052F0000628F1DB0F2D08D26D1CEDB244EA051033
:10530000761C8BF80000102ED7DBBDE8F05F042080
:10531000FDF706BEF0B54B4900204D684C490A68C0
:10532000537D117D5B1C01FB03F41CE035F911304A
:10533000002B02DC40F0200014E040F6FF76B34280
:1053400002DB40F010000DE0B2F83471B2F8BE613B
:1053500007EB060C9C4505DABF1B9F4202DD0EB130
:1053600040F04000491C8C42E0DCF0BD2DE9FE4FCE
:10537000FEF762FA0446FEF765FA07464FEA540B59
:105380004FF4F061354810F09CF92E484FF0270992
:1053900080211C3010F0B7F9002001900120FFF7A8
:1053A00061FE2848D0F804A029480068057D012046
:1053B000002402906EE0012000FA04F111EA0B0FC4
:1053C00067D00026012000FA06F818EA070F56D029
:1053D0001C481C3050F8241011EA080F4ED13146F9
:1053E0002046FEF769FA009019483AF9151000684E
:1053F000B0F83401814235DC184B33F91520121A0C
:10540000A1EB000000D55242002800DA404282425F
:1054100009DC00983146401EC0B20246009020468A
:10542000FEF760FA01E023F815100D49009821F805
:10543000150004481C3050F8241041EA080140F8D7
:1054400024101BE06C40100000C801200CC8012093
:105450003C0210002A400120F6FF0100D8CF0120B5
:1054600058D7012000983146401CC2B22046FEF7B2
:1054700039FA6C483AF8151020F815106D1C761C96
:10548000202E9FDB684850F82400B84201D000204D
:105490000290641C4C458EDB029838B9FCF7B9FFCA
:1054A0000198401C01904028FFF678AF5F484FF00C
:1054B000010A00250068067D1DE0012000FA05F1C3
:1054C00011EA0B0F16D000240120A04038420ED064
:1054D0005748214610F81600804602462846FEF737
:1054E00001FAB8F13F0F01D34FF0000A761C641C9B
:1054F000202CE9DB6D1C4D45DFDBBAF1000F02D13A
:105500000320FDF70DFDFCF784FF0120FFF7AAFD46
:10551000BDE8FE4FFEE62DE9F05F444A116891F8C0
:105520003001C4074348037803F0F00516D0057036
:1055300000264B7D0C7DDFF8F0A05B1CB046AAF185
:105540001C0A914604FB03F783460120FFF78AFDFE
:105550002046DAF80420D9F800100EE091F83E1148
:1055600001F00F01294301709DE600BF32F91030B0
:10557000B1F832C16345F7DB401C8742F6DC0F2EE1
:105580000AD2761CF6B245EA060108F101088BF84A
:105590000010B8F1100FD8DBBDE8F05F0220FDF776
:1055A000BFBC70B501244FF404614FF4F83010F023
:1055B000AAF8FCF72EFFFFF7AEFFFFF7D7FE1B4D53
:1055C00044EA0064286890F8E80128B1FFF759FE22
:1055D000FFF77FFD44EA004416482A68401D017821
:1055E00092F8FB2701F0F00102F00F021143017065
:1055F0001148FEF7CFF9204605F0FDFFBDE87040E9
:10560000012000F001BD10B54FF4805421460B4835
:1056100010F057F82246BDE810404FF4F831074823
:10562000FEF73FBBD8CF0120884010003C0210009D
:1056300058D70120F6FF0100E42310002A30012092
:105640002DE9F04F0020FF4D04460246012140F6AF
:10565000FF7BFD4BD5F814906E681B6801FA02F7CA
:1056600037421CD039F914A0BAF1000F02DC40F027
:10567000200013E0DA4502DB40F010000EE0B3F842
:1056800036C1B3F84171E6460CEB0708D04503DBA1
:10569000AEEB070CD44501DD40F04000641C521C09
:1056A000202ADBD30024AF69AE68224601FA02F556
:1056B00035421AD037F91450002D02DC40F020009A
:1056C00012E05D4502DB40F010000DE0B3F83A81D6
:1056D000B3F8439108EB090CAC4503DBA8EB090CCC
:1056E000AC4501DD40F04000641C521C202ADDD393
:1056F000BDE8F08F10B501461C22D448FEF7D1FA60
:105700008021BDE810400120FAF7B8BE30B59BB04B
:1057100004466846FEF7F4FA207801284AD0CA48C1
:10572000016891F80907800705D5B1F85C07ADF865
:105730003400ADF83A0091F80A074FF00604C007AC
:1057400009D0FEF7EAFC012805D0BDF8020040F0C0
:105750000200ADF80200ADF8004000208DF84600D0
:105760008DF84500B748416849000B9180680C905E
:10577000BDF80200AFF2830140F4A670B34D029170
:10578000ADF8020003246846FCF7C2F819AB00220A
:1057900080210120FAF7C2FE80210120FAF79DFE48
:1057A0002878002804D0FDF797FB641E002CEADC63
:1057B0001BB030BD4FF48060ADF80000CDE72DE99F
:1057C000FC5F0446006A21210FF07BFF3021606AF4
:1057D0000FF077FF2046FDF7C4F92046FCF793FE53
:1057E0000420DFF86082DFF860A203254FF0000993
:1057F0004FF0010B00902046FFF788FFE8072AD002
:105800000020074606460190D8F804100BFA06F06F
:10581000084219D03046216AFEF780F8D8F81410F3
:1058200031F91720DAF80010B1F845118A420ADA86
:105830003F2808D2012101910099226A0844C1B28F
:105840003046FEF78EF87F1C761C202EDCD30198A4
:1058500008B925F00105A8072BD500200746064604
:10586000CDF80400D8F808100BFA06F0084219D059
:105870003046616AFEF752F8D8F8181031F917204F
:10588000DAF80010B1F847118A420ADA3F2808D244
:10589000012101910099626A0844C1B23046FEF7C5
:1058A00060F87F1C761C202EDCD3019808B925F007
:1058B000020555B12046FDF754F92046FCF723FEBA
:1058C00009F10109B9F1640F95DB03254FF00009D7
:1058D0002046FFF71BFFE80729D0002007460646B1
:1058E000CDF80000D8F804100BFA06F0084217D0E3
:1058F0003046216AFEF712F8D8F8141031F9172053
:10590000DAF80010B1F845118A4208DD38B10121FA
:105910000091401EC1B23046226AFEF722F87F1C79
:10592000761C202EDED3009808B925F00105A807C3
:1059300029D5002007460646CDF80000D8F8081003
:105940000BFA06F0084217D03046616AFDF7E6FF11
:10595000D8F8181031F91720DAF80010B1F847110B
:105960008A4208DD38B101210091401EC1B23046A3
:10597000626AFDF7F6FF7F1C761C202EDED30098AE
:1059800008B925F00205002D0AD02046FDF7E9F8F8
:105990002046FCF7B8FD09F10109B9F1640F97DB66
:1059A000BDE8FC9F2DE9F04106460020F169087032
:1059B0002121306A0FF085FE3021706A0FF081FEE0
:1059C0003046FCF7A0FD3046FDF7CBF81D4D002713
:1059D0003046FFF79BFED5E904320024204605E05F
:1059E00032F91010A14200DD0C46401C9842F7DB52
:1059F0000020EB68AA6905E032F91010A14200DD31
:105A00000C46401C9842F7DB002C0BDCF069017857
:105A10000F2904D8491C01703046FDF7A2F87F1CFD
:105A2000202FD5DB40F6FE70844208DDF16908784E
:105A3000401E08703046BDE8F041FDF792B8BDE861
:105A4000F0810000DC0210003C0210000841100050
:105A50002DE9F05F04464068FE4A00250778A068FB
:105A6000D4F81480D2F804C090F800902E4629464D
:105A7000012000BF00FA01F313EA0C0F04D018F85C
:105A80000130AB4200D91D46491C2029F2D3A3693D
:105A9000D2F808C00021904600FA01F212EA0C0F79
:105AA00003D05A5CB24200D91646491C2029F3D3D0
:105AB000E068E949057020690670086890F80A07EF
:105AC000C20708D08B46800705D5FEF707FB0128E3
:105AD00001D1207860B1E81906EB0901FF22884264
